{
  "contractName": "ThamesBoats",
  "abi": [
    {
      "constant": true,
      "inputs": [
        {
          "name": "",
          "type": "address"
        }
      ],
      "name": "balances",
      "outputs": [
        {
          "name": "",
          "type": "uint256"
        }
      ],
      "payable": false,
      "stateMutability": "view",
      "type": "function",
      "signature": "0x27e235e3"
    },
    {
      "constant": true,
      "inputs": [
        {
          "name": "",
          "type": "uint256"
        }
      ],
      "name": "clubList",
      "outputs": [
        {
          "name": "",
          "type": "uint256"
        }
      ],
      "payable": false,
      "stateMutability": "view",
      "type": "function",
      "signature": "0x28758ce1"
    },
    {
      "constant": true,
      "inputs": [
        {
          "name": "",
          "type": "uint256"
        }
      ],
      "name": "boatIdtoClubId",
      "outputs": [
        {
          "name": "",
          "type": "uint256"
        }
      ],
      "payable": false,
      "stateMutability": "view",
      "type": "function",
      "signature": "0x2ceec22c"
    },
    {
      "constant": true,
      "inputs": [
        {
          "name": "",
          "type": "address"
        }
      ],
      "name": "roleMarketAdmin",
      "outputs": [
        {
          "name": "",
          "type": "bool"
        }
      ],
      "payable": false,
      "stateMutability": "view",
      "type": "function",
      "signature": "0x30d67e66"
    },
    {
      "constant": true,
      "inputs": [
        {
          "name": "",
          "type": "uint256"
        }
      ],
      "name": "boats",
      "outputs": [
        {
          "name": "name",
          "type": "string"
        },
        {
          "name": "description",
          "type": "string"
        },
        {
          "name": "price",
          "type": "uint256"
        },
        {
          "name": "quantity",
          "type": "uint256"
        },
        {
          "name": "boatStatus",
          "type": "uint8"
        }
      ],
      "payable": false,
      "stateMutability": "view",
      "type": "function",
      "signature": "0x525919da"
    },
    {
      "constant": true,
      "inputs": [
        {
          "name": "",
          "type": "uint256"
        }
      ],
      "name": "marketAdminRoleList",
      "outputs": [
        {
          "name": "",
          "type": "address"
        }
      ],
      "payable": false,
      "stateMutability": "view",
      "type": "function",
      "signature": "0x6ce1085a"
    },
    {
      "constant": true,
      "inputs": [],
      "name": "suspended",
      "outputs": [
        {
          "name": "",
          "type": "bool"
        }
      ],
      "payable": false,
      "stateMutability": "view",
      "type": "function",
      "signature": "0x702efdf3"
    },
    {
      "constant": true,
      "inputs": [
        {
          "name": "",
          "type": "uint256"
        },
        {
          "name": "",
          "type": "uint256"
        }
      ],
      "name": "clubBoats",
      "outputs": [
        {
          "name": "",
          "type": "uint256"
        }
      ],
      "payable": false,
      "stateMutability": "view",
      "type": "function",
      "signature": "0x78d08c75"
    },
    {
      "constant": true,
      "inputs": [],
      "name": "boatIdSeq",
      "outputs": [
        {
          "name": "",
          "type": "uint256"
        }
      ],
      "payable": false,
      "stateMutability": "view",
      "type": "function",
      "signature": "0x81a8ca12"
    },
    {
      "constant": true,
      "inputs": [
        {
          "name": "",
          "type": "uint256"
        }
      ],
      "name": "purchases",
      "outputs": [
        {
          "name": "clubId",
          "type": "uint256"
        },
        {
          "name": "boatId",
          "type": "uint256"
        },
        {
          "name": "buyer",
          "type": "address"
        },
        {
          "name": "quantity",
          "type": "uint256"
        },
        {
          "name": "totalPaid",
          "type": "uint256"
        }
      ],
      "payable": false,
      "stateMutability": "view",
      "type": "function",
      "signature": "0x8392fe31"
    },
    {
      "constant": true,
      "inputs": [
        {
          "name": "",
          "type": "address"
        }
      ],
      "name": "roleClubOwner",
      "outputs": [
        {
          "name": "",
          "type": "bool"
        }
      ],
      "payable": false,
      "stateMutability": "view",
      "type": "function",
      "signature": "0x84243b52"
    },
    {
      "constant": true,
      "inputs": [],
      "name": "owner",
      "outputs": [
        {
          "name": "",
          "type": "address"
        }
      ],
      "payable": false,
      "stateMutability": "view",
      "type": "function",
      "signature": "0x8da5cb5b"
    },
    {
      "constant": true,
      "inputs": [
        {
          "name": "",
          "type": "uint256"
        }
      ],
      "name": "clubs",
      "outputs": [
        {
          "name": "owner",
          "type": "address"
        },
        {
          "name": "name",
          "type": "string"
        },
        {
          "name": "location",
          "type": "string"
        },
        {
          "name": "clubStatus",
          "type": "uint8"
        }
      ],
      "payable": false,
      "stateMutability": "view",
      "type": "function",
      "signature": "0x9cc009c1"
    },
    {
      "constant": true,
      "inputs": [
        {
          "name": "",
          "type": "uint256"
        }
      ],
      "name": "clubOwnerRoleList",
      "outputs": [
        {
          "name": "",
          "type": "address"
        }
      ],
      "payable": false,
      "stateMutability": "view",
      "type": "function",
      "signature": "0xa5638324"
    },
    {
      "constant": true,
      "inputs": [
        {
          "name": "",
          "type": "address"
        }
      ],
      "name": "ownertoClub",
      "outputs": [
        {
          "name": "",
          "type": "uint256"
        }
      ],
      "payable": false,
      "stateMutability": "view",
      "type": "function",
      "signature": "0xb2c68965"
    },
    {
      "constant": true,
      "inputs": [],
      "name": "clubIdSeq",
      "outputs": [
        {
          "name": "",
          "type": "uint256"
        }
      ],
      "payable": false,
      "stateMutability": "view",
      "type": "function",
      "signature": "0xc7024f11"
    },
    {
      "inputs": [],
      "payable": false,
      "stateMutability": "nonpayable",
      "type": "constructor",
      "signature": "constructor"
    },
    {
      "payable": true,
      "stateMutability": "payable",
      "type": "fallback"
    },
    {
      "anonymous": false,
      "inputs": [
        {
          "indexed": true,
          "name": "actionedBy",
          "type": "address"
        },
        {
          "indexed": false,
          "name": "suspended",
          "type": "bool"
        }
      ],
      "name": "LogToggleThamesBoatsSuspended",
      "type": "event",
      "signature": "0x6ee82a005a196114298ed3fd4055496a9411fca98d2088cb257767a7fee5435b"
    },
    {
      "anonymous": false,
      "inputs": [
        {
          "indexed": true,
          "name": "newAdmin",
          "type": "address"
        }
      ],
      "name": "LogAddMarketAdmin",
      "type": "event",
      "signature": "0x8577b73970afd905bc8b2c17574458270f0907121413ebdd279100e00b586d6d"
    },
    {
      "anonymous": false,
      "inputs": [
        {
          "indexed": true,
          "name": "removedAdmin",
          "type": "address"
        }
      ],
      "name": "LogRemoveMarketAdmin",
      "type": "event",
      "signature": "0x786a6ef122b6ac212382cddd9060ca20435d047ace38959f67bde4b69c5b4c15"
    },
    {
      "anonymous": false,
      "inputs": [
        {
          "indexed": true,
          "name": "removedClubOwner",
          "type": "address"
        },
        {
          "indexed": false,
          "name": "actionedBy",
          "type": "address"
        }
      ],
      "name": "LogRemoveClubOwner",
      "type": "event",
      "signature": "0x2985d81530dd99e8ec6b4afa40372e9bd2b904c4ce854bc531f9cb27fdabaad9"
    },
    {
      "anonymous": false,
      "inputs": [
        {
          "indexed": true,
          "name": "newClubOwner",
          "type": "address"
        },
        {
          "indexed": false,
          "name": "actionedBy",
          "type": "address"
        }
      ],
      "name": "LogAddClubOwner",
      "type": "event",
      "signature": "0x5526df583f5c85a8a84c2cb01c1cc849710e92dd9ce494f9235a53a66bc2b064"
    },
    {
      "anonymous": false,
      "inputs": [
        {
          "indexed": true,
          "name": "clubId",
          "type": "uint256"
        },
        {
          "indexed": false,
          "name": "actionedBy",
          "type": "address"
        }
      ],
      "name": "LogClubRemoved",
      "type": "event",
      "signature": "0xc72999ffb2f6f2b29e419831f1c92d71452b60f811b87f1fa77887faa5b16c37"
    },
    {
      "anonymous": false,
      "inputs": [
        {
          "indexed": true,
          "name": "clubId",
          "type": "uint256"
        },
        {
          "indexed": false,
          "name": "actionedBy",
          "type": "address"
        }
      ],
      "name": "LogClubClosed",
      "type": "event",
      "signature": "0xdc394d8223b06dffc38aebceaca13ec9f117216fa61ded013bf9d4d367febb32"
    },
    {
      "anonymous": false,
      "inputs": [
        {
          "indexed": true,
          "name": "clubId",
          "type": "uint256"
        },
        {
          "indexed": false,
          "name": "actionedBy",
          "type": "address"
        }
      ],
      "name": "LogClubAdded",
      "type": "event",
      "signature": "0x06a5ab8c17cb7b03df4a876d4698f23201fabb76bd782c158ec302865609dc2c"
    },
    {
      "anonymous": false,
      "inputs": [
        {
          "indexed": true,
          "name": "clubId",
          "type": "uint256"
        },
        {
          "indexed": false,
          "name": "actionedBy",
          "type": "address"
        }
      ],
      "name": "LogClubOpen",
      "type": "event",
      "signature": "0x2f471fce97469ae3a9c5cca67a939d3018ae6e5111a03b0a98032c4015f25056"
    },
    {
      "anonymous": false,
      "inputs": [
        {
          "indexed": true,
          "name": "clubId",
          "type": "uint256"
        },
        {
          "indexed": true,
          "name": "boatId",
          "type": "uint256"
        },
        {
          "indexed": false,
          "name": "price",
          "type": "uint256"
        },
        {
          "indexed": false,
          "name": "quantity",
          "type": "uint256"
        },
        {
          "indexed": false,
          "name": "actionedBy",
          "type": "address"
        }
      ],
      "name": "LogBoatAdded",
      "type": "event",
      "signature": "0x1ac3fc815645231f6c0b5fbe692796bd5d8a5495ba4eccf4901de038e49107ba"
    },
    {
      "anonymous": false,
      "inputs": [
        {
          "indexed": true,
          "name": "boatId",
          "type": "uint256"
        },
        {
          "indexed": false,
          "name": "actionedBy",
          "type": "address"
        }
      ],
      "name": "LogBoatRemoved",
      "type": "event",
      "signature": "0xf31bdda461d6813d1cf607134b3d335c095eac19d4fbe7edcb69dac678a32f1b"
    },
    {
      "anonymous": false,
      "inputs": [
        {
          "indexed": true,
          "name": "boatId",
          "type": "uint256"
        },
        {
          "indexed": false,
          "name": "boatStatus",
          "type": "uint256"
        }
      ],
      "name": "LogBoatStatusToggled",
      "type": "event",
      "signature": "0x1ee08c9516bdf367d69035c14c661c7888fa68ccc5585b667f5323f1a19edfb3"
    },
    {
      "anonymous": false,
      "inputs": [
        {
          "indexed": true,
          "name": "sender",
          "type": "address"
        },
        {
          "indexed": false,
          "name": "value",
          "type": "uint256"
        }
      ],
      "name": "LogPaymentReceived",
      "type": "event",
      "signature": "0x71c66459b89364f3bf3c906b1a1d8652cc2920224be995f47e1bd17fd1428222"
    },
    {
      "anonymous": false,
      "inputs": [
        {
          "indexed": true,
          "name": "purchaseId",
          "type": "uint256"
        },
        {
          "indexed": false,
          "name": "refund",
          "type": "uint256"
        }
      ],
      "name": "LogPaymentRefund",
      "type": "event",
      "signature": "0xc2b8f68866a5a74ed11be886558a395d6daa77cb4d0e245b131515503def49ce"
    },
    {
      "anonymous": false,
      "inputs": [
        {
          "indexed": true,
          "name": "withdrawer",
          "type": "address"
        },
        {
          "indexed": false,
          "name": "value",
          "type": "uint256"
        }
      ],
      "name": "LogWithdrawl",
      "type": "event",
      "signature": "0x63734cbaa2e40b5ba26fdbc5eee98dedeeaf268050a41768390bd0dbb20e3d27"
    },
    {
      "anonymous": false,
      "inputs": [
        {
          "indexed": true,
          "name": "purchasedBy",
          "type": "address"
        },
        {
          "indexed": true,
          "name": "purchaseId",
          "type": "uint256"
        },
        {
          "indexed": false,
          "name": "clubOwner",
          "type": "address"
        },
        {
          "indexed": false,
          "name": "clubId",
          "type": "uint256"
        },
        {
          "indexed": false,
          "name": "boatId",
          "type": "uint256"
        },
        {
          "indexed": false,
          "name": "quantity",
          "type": "uint256"
        },
        {
          "indexed": false,
          "name": "costOfSale",
          "type": "uint256"
        },
        {
          "indexed": false,
          "name": "fundsSent",
          "type": "uint256"
        },
        {
          "indexed": false,
          "name": "refund",
          "type": "uint256"
        }
      ],
      "name": "LogPurchase",
      "type": "event",
      "signature": "0xc70e0051ad893c81a2586dd6edaf451b8b289c2e8bb81fba73daadf88475b7f2"
    },
    {
      "constant": false,
      "inputs": [],
      "name": "toggleThamesBoatsActive",
      "outputs": [],
      "payable": false,
      "stateMutability": "nonpayable",
      "type": "function",
      "signature": "0x0a1db5f3"
    },
    {
      "constant": true,
      "inputs": [
        {
          "name": "clubId",
          "type": "uint256"
        }
      ],
      "name": "getClub",
      "outputs": [
        {
          "name": "",
          "type": "address"
        },
        {
          "name": "",
          "type": "string"
        },
        {
          "name": "",
          "type": "string"
        },
        {
          "name": "",
          "type": "uint256"
        }
      ],
      "payable": false,
      "stateMutability": "view",
      "type": "function",
      "signature": "0x5adf16af"
    },
    {
      "constant": true,
      "inputs": [
        {
          "name": "boatId",
          "type": "uint256"
        }
      ],
      "name": "getBoat",
      "outputs": [
        {
          "name": "",
          "type": "string"
        },
        {
          "name": "",
          "type": "string"
        },
        {
          "name": "",
          "type": "uint256"
        },
        {
          "name": "",
          "type": "uint256"
        },
        {
          "name": "",
          "type": "uint256"
        }
      ],
      "payable": false,
      "stateMutability": "view",
      "type": "function",
      "signature": "0x4b9fc145"
    },
    {
      "constant": true,
      "inputs": [],
      "name": "getClubIds",
      "outputs": [
        {
          "name": "",
          "type": "uint256[]"
        }
      ],
      "payable": false,
      "stateMutability": "view",
      "type": "function",
      "signature": "0x49213c59"
    },
    {
      "constant": true,
      "inputs": [],
      "name": "getMarketAdmins",
      "outputs": [
        {
          "name": "",
          "type": "address[]"
        }
      ],
      "payable": false,
      "stateMutability": "view",
      "type": "function",
      "signature": "0x46b0511b"
    },
    {
      "constant": true,
      "inputs": [],
      "name": "getClubOwners",
      "outputs": [
        {
          "name": "",
          "type": "address[]"
        }
      ],
      "payable": false,
      "stateMutability": "view",
      "type": "function",
      "signature": "0xc53144ad"
    },
    {
      "constant": true,
      "inputs": [],
      "name": "getMyBalance",
      "outputs": [
        {
          "name": "",
          "type": "uint256"
        }
      ],
      "payable": false,
      "stateMutability": "view",
      "type": "function",
      "signature": "0x4c738909"
    },
    {
      "constant": true,
      "inputs": [
        {
          "name": "clubId",
          "type": "uint256"
        }
      ],
      "name": "getBoatsIdbyClubId",
      "outputs": [
        {
          "name": "",
          "type": "uint256[]"
        }
      ],
      "payable": false,
      "stateMutability": "view",
      "type": "function",
      "signature": "0x98ae53fc"
    },
    {
      "constant": false,
      "inputs": [
        {
          "name": "name",
          "type": "string"
        },
        {
          "name": "description",
          "type": "string"
        },
        {
          "name": "price",
          "type": "uint256"
        },
        {
          "name": "quantity",
          "type": "uint256"
        }
      ],
      "name": "addBoat",
      "outputs": [
        {
          "name": "",
          "type": "uint256"
        }
      ],
      "payable": false,
      "stateMutability": "nonpayable",
      "type": "function",
      "signature": "0x8bbc6550"
    },
    {
      "constant": false,
      "inputs": [
        {
          "name": "boatId",
          "type": "uint256"
        }
      ],
      "name": "removeBoat",
      "outputs": [
        {
          "name": "",
          "type": "bool"
        }
      ],
      "payable": false,
      "stateMutability": "nonpayable",
      "type": "function",
      "signature": "0xebbd1aa7"
    },
    {
      "constant": false,
      "inputs": [
        {
          "name": "boatId",
          "type": "uint256"
        }
      ],
      "name": "toggleBoatStatus",
      "outputs": [
        {
          "name": "",
          "type": "bool"
        }
      ],
      "payable": false,
      "stateMutability": "nonpayable",
      "type": "function",
      "signature": "0xe4905108"
    },
    {
      "constant": false,
      "inputs": [
        {
          "name": "boatId",
          "type": "uint256"
        },
        {
          "name": "quantity",
          "type": "uint256"
        }
      ],
      "name": "purchaseBoat",
      "outputs": [
        {
          "name": "",
          "type": "uint256"
        }
      ],
      "payable": true,
      "stateMutability": "payable",
      "type": "function",
      "signature": "0xefade2c5"
    },
    {
      "constant": false,
      "inputs": [],
      "name": "withdrawFunds",
      "outputs": [],
      "payable": true,
      "stateMutability": "payable",
      "type": "function",
      "signature": "0x24600fc3"
    },
    {
      "constant": false,
      "inputs": [
        {
          "name": "name",
          "type": "string"
        },
        {
          "name": "location",
          "type": "string"
        }
      ],
      "name": "addClub",
      "outputs": [],
      "payable": false,
      "stateMutability": "nonpayable",
      "type": "function",
      "signature": "0xda5aeb2f"
    },
    {
      "constant": false,
      "inputs": [
        {
          "name": "clubId",
          "type": "uint256"
        }
      ],
      "name": "removeClub",
      "outputs": [],
      "payable": false,
      "stateMutability": "nonpayable",
      "type": "function",
      "signature": "0x41d60128"
    },
    {
      "constant": false,
      "inputs": [
        {
          "name": "clubId",
          "type": "uint256"
        }
      ],
      "name": "closeClub",
      "outputs": [],
      "payable": false,
      "stateMutability": "nonpayable",
      "type": "function",
      "signature": "0x7c0c83aa"
    },
    {
      "constant": false,
      "inputs": [
        {
          "name": "clubId",
          "type": "uint256"
        }
      ],
      "name": "openClub",
      "outputs": [],
      "payable": false,
      "stateMutability": "nonpayable",
      "type": "function",
      "signature": "0xb37711d4"
    },
    {
      "constant": false,
      "inputs": [
        {
          "name": "_address",
          "type": "address"
        }
      ],
      "name": "addMarketAdmin",
      "outputs": [],
      "payable": false,
      "stateMutability": "nonpayable",
      "type": "function",
      "signature": "0xf3c93a92"
    },
    {
      "constant": false,
      "inputs": [
        {
          "name": "_address",
          "type": "address"
        }
      ],
      "name": "removeMarketAdmin",
      "outputs": [],
      "payable": false,
      "stateMutability": "nonpayable",
      "type": "function",
      "signature": "0xb38f668b"
    },
    {
      "constant": false,
      "inputs": [
        {
          "name": "_address",
          "type": "address"
        }
      ],
      "name": "addClubOwner",
      "outputs": [],
      "payable": false,
      "stateMutability": "nonpayable",
      "type": "function",
      "signature": "0xc9ab8c23"
    },
    {
      "constant": false,
      "inputs": [
        {
          "name": "_address",
          "type": "address"
        }
      ],
      "name": "removeClubOwner",
      "outputs": [],
      "payable": false,
      "stateMutability": "nonpayable",
      "type": "function",
      "signature": "0x346f63bd"
    }
  ],
  "bytecode": "0x608060405260008060006101000a81548160ff02191690831515021790555060008060156101000a81548160ff02191690831515021790555034801561004457600080fd5b5033600060016101000a81548173ffffffffffffffffffffffffffffffffffffffff021916908373ffffffffffffffffffffffffffffffffffffffff1602179055506001600760003373ffffffffffffffffffffffffffffffffffffffff1673ffffffffffffffffffffffffffffffffffffffff16815260200190815260200160002060006101000a81548160ff02191690831515021790555060043390806001815401808255809150509060018203906000526020600020016000909192909190916101000a81548173ffffffffffffffffffffffffffffffffffffffff021916908373ffffffffffffffffffffffffffffffffffffffff16021790555050614e12806101536000396000f3fe608060405260043610610237576000357c01000000000000000000000000000000000000000000000000000000009004806381a8ca1211610140578063b37711d4116100c8578063da5aeb2f1161008c578063da5aeb2f14611194578063e49051081461126f578063ebbd1aa7146112c2578063efade2c514611315578063f3c93a921461136157610237565b8063b37711d414611020578063b38f668b1461105b578063c53144ad146110ac578063c7024f1114611118578063c9ab8c231461114357610237565b80638da5cb5b1161010f5780638da5cb5b14610cf157806398ae53fc14610d485780639cc009c114610dd8578063a563832414610f40578063b2c6896514610fbb57610237565b806381a8ca1214610ac35780638392fe3114610aee57806384243b5214610b855780638bbc655014610bee57610237565b806349213c59116101c35780635adf16af116101925780635adf16af1461082b5780636ce1085a14610985578063702efdf314610a0057806378d08c7514610a2f5780637c0c83aa14610a8857610237565b806349213c591461051c5780634b9fc145146105885780634c738909146106bd578063525919da146106e857610237565b80632ceec22c1161020a5780632ceec22c1461036c57806330d67e66146103bb578063346f63bd1461042457806341d601281461047557806346b0511b146104b057610237565b80630a1db5f31461029757806324600fc3146102ae57806327e235e3146102b857806328758ce11461031d575b600080369050141515610295576040517f08c379a000000000000000000000000000000000000000000000000000000000815260040180806020018281038252602c815260200180614c3b602c913960400191505060405180910390fd5b005b3480156102a357600080fd5b506102ac6113b2565b005b6102b6611504565b005b3480156102c457600080fd5b50610307600480360360208110156102db57600080fd5b81019080803573ffffffffffffffffffffffffffffffffffffffff169060200190929190505050611846565b6040518082815260200191505060405180910390f35b34801561032957600080fd5b506103566004803603602081101561034057600080fd5b810190808035906020019092919050505061185e565b6040518082815260200191505060405180910390f35b34801561037857600080fd5b506103a56004803603602081101561038f57600080fd5b8101908080359060200190929190505050611881565b6040518082815260200191505060405180910390f35b3480156103c757600080fd5b5061040a600480360360208110156103de57600080fd5b81019080803573ffffffffffffffffffffffffffffffffffffffff169060200190929190505050611899565b604051808215151515815260200191505060405180910390f35b34801561043057600080fd5b506104736004803603602081101561044757600080fd5b81019080803573ffffffffffffffffffffffffffffffffffffffff1690602001909291905050506118b9565b005b34801561048157600080fd5b506104ae6004803603602081101561049857600080fd5b8101908080359060200190929190505050611c34565b005b3480156104bc57600080fd5b506104c5611e3c565b6040518080602001828103825283818151815260200191508051906020019060200280838360005b838110156105085780820151818401526020810190506104ed565b505050509050019250505060405180910390f35b34801561052857600080fd5b50610531611eca565b6040518080602001828103825283818151815260200191508051906020019060200280838360005b83811015610574578082015181840152602081019050610559565b505050509050019250505060405180910390f35b34801561059457600080fd5b506105c1600480360360208110156105ab57600080fd5b8101908080359060200190929190505050611f22565b604051808060200180602001868152602001858152602001848152602001838103835288818151815260200191508051906020019080838360005b838110156106175780820151818401526020810190506105fc565b50505050905090810190601f1680156106445780820380516001836020036101000a031916815260200191505b50838103825287818151815260200191508051906020019080838360005b8381101561067d578082015181840152602081019050610662565b50505050905090810190601f1680156106aa5780820380516001836020036101000a031916815260200191505b5097505050505050505060405180910390f35b3480156106c957600080fd5b506106d2612116565b6040518082815260200191505060405180910390f35b3480156106f457600080fd5b506107216004803603602081101561070b57600080fd5b810190808035906020019092919050505061215d565b60405180806020018060200186815260200185815260200184600281111561074557fe5b60ff168152602001838103835288818151815260200191508051906020019080838360005b8381101561078557808201518184015260208101905061076a565b50505050905090810190601f1680156107b25780820380516001836020036101000a031916815260200191505b50838103825287818151815260200191508051906020019080838360005b838110156107eb5780820151818401526020810190506107d0565b50505050905090810190601f1680156108185780820380516001836020036101000a031916815260200191505b5097505050505050505060405180910390f35b34801561083757600080fd5b506108646004803603602081101561084e57600080fd5b81019080803590602001909291905050506122d0565b604051808573ffffffffffffffffffffffffffffffffffffffff1673ffffffffffffffffffffffffffffffffffffffff1681526020018060200180602001848152602001838103835286818151815260200191508051906020019080838360005b838110156108e05780820151818401526020810190506108c5565b50505050905090810190601f16801561090d5780820380516001836020036101000a031916815260200191505b50838103825285818151815260200191508051906020019080838360005b8381101561094657808201518184015260208101905061092b565b50505050905090810190601f1680156109735780820380516001836020036101000a031916815260200191505b50965050505050505060405180910390f35b34801561099157600080fd5b506109be600480360360208110156109a857600080fd5b81019080803590602001909291905050506124ff565b604051808273ffffffffffffffffffffffffffffffffffffffff1673ffffffffffffffffffffffffffffffffffffffff16815260200191505060405180910390f35b348015610a0c57600080fd5b50610a1561253d565b604051808215151515815260200191505060405180910390f35b348015610a3b57600080fd5b50610a7260048036036040811015610a5257600080fd5b810190808035906020019092919080359060200190929190505050612550565b6040518082815260200191505060405180910390f35b348015610a9457600080fd5b50610ac160048036036020811015610aab57600080fd5b8101908080359060200190929190505050612580565b005b348015610acf57600080fd5b50610ad8612788565b6040518082815260200191505060405180910390f35b348015610afa57600080fd5b50610b2760048036036020811015610b1157600080fd5b810190808035906020019092919050505061278e565b604051808681526020018581526020018473ffffffffffffffffffffffffffffffffffffffff1673ffffffffffffffffffffffffffffffffffffffff1681526020018381526020018281526020019550505050505060405180910390f35b348015610b9157600080fd5b50610bd460048036036020811015610ba857600080fd5b81019080803573ffffffffffffffffffffffffffffffffffffffff1690602001909291905050506127e4565b604051808215151515815260200191505060405180910390f35b348015610bfa57600080fd5b50610cdb60048036036080811015610c1157600080fd5b8101908080359060200190640100000000811115610c2e57600080fd5b820183602082011115610c4057600080fd5b80359060200191846001830284011164010000000083111715610c6257600080fd5b909192939192939080359060200190640100000000811115610c8357600080fd5b820183602082011115610c9557600080fd5b80359060200191846001830284011164010000000083111715610cb757600080fd5b90919293919293908035906020019092919080359060200190929190505050612804565b6040518082815260200191505060405180910390f35b348015610cfd57600080fd5b50610d06612c74565b604051808273ffffffffffffffffffffffffffffffffffffffff1673ffffffffffffffffffffffffffffffffffffffff16815260200191505060405180910390f35b348015610d5457600080fd5b50610d8160048036036020811015610d6b57600080fd5b8101908080359060200190929190505050612c9a565b6040518080602001828103825283818151815260200191508051906020019060200280838360005b83811015610dc4578082015181840152602081019050610da9565b505050509050019250505060405180910390f35b348015610de457600080fd5b50610e1160048036036020811015610dfb57600080fd5b8101908080359060200190929190505050612d05565b604051808573ffffffffffffffffffffffffffffffffffffffff1673ffffffffffffffffffffffffffffffffffffffff1681526020018060200180602001846002811115610e5b57fe5b60ff168152602001838103835286818151815260200191508051906020019080838360005b83811015610e9b578082015181840152602081019050610e80565b50505050905090810190601f168015610ec85780820380516001836020036101000a031916815260200191505b50838103825285818151815260200191508051906020019080838360005b83811015610f01578082015181840152602081019050610ee6565b50505050905090810190601f168015610f2e5780820380516001836020036101000a031916815260200191505b50965050505050505060405180910390f35b348015610f4c57600080fd5b50610f7960048036036020811015610f6357600080fd5b8101908080359060200190929190505050612e92565b604051808273ffffffffffffffffffffffffffffffffffffffff1673ffffffffffffffffffffffffffffffffffffffff16815260200191505060405180910390f35b348015610fc757600080fd5b5061100a60048036036020811015610fde57600080fd5b81019080803573ffffffffffffffffffffffffffffffffffffffff169060200190929190505050612ed0565b6040518082815260200191505060405180910390f35b34801561102c57600080fd5b506110596004803603602081101561104357600080fd5b8101908080359060200190929190505050612ee8565b005b34801561106757600080fd5b506110aa6004803603602081101561107e57600080fd5b81019080803573ffffffffffffffffffffffffffffffffffffffff1690602001909291905050506130f0565b005b3480156110b857600080fd5b506110c16133be565b6040518080602001828103825283818151815260200191508051906020019060200280838360005b838110156111045780820151818401526020810190506110e9565b505050509050019250505060405180910390f35b34801561112457600080fd5b5061112d61344c565b6040518082815260200191505060405180910390f35b34801561114f57600080fd5b506111926004803603602081101561116657600080fd5b81019080803573ffffffffffffffffffffffffffffffffffffffff169060200190929190505050613452565b005b3480156111a057600080fd5b5061126d600480360360408110156111b757600080fd5b81019080803590602001906401000000008111156111d457600080fd5b8201836020820111156111e657600080fd5b8035906020019184600183028401116401000000008311171561120857600080fd5b90919293919293908035906020019064010000000081111561122957600080fd5b82018360208201111561123b57600080fd5b8035906020019184600183028401116401000000008311171561125d57600080fd5b9091929391929390505050613710565b005b34801561127b57600080fd5b506112a86004803603602081101561129257600080fd5b8101908080359060200190929190505050613c0b565b604051808215151515815260200191505060405180910390f35b3480156112ce57600080fd5b506112fb600480360360208110156112e557600080fd5b8101908080359060200190929190505050613ec5565b604051808215151515815260200191505060405180910390f35b61134b6004803603604081101561132b57600080fd5b810190808035906020019092919080359060200190929190505050614176565b6040518082815260200191505060405180910390f35b34801561136d57600080fd5b506113b06004803603602081101561138457600080fd5b81019080803573ffffffffffffffffffffffffffffffffffffffff16906020019092919050505061481b565b005b600060019054906101000a900473ffffffffffffffffffffffffffffffffffffffff1673ffffffffffffffffffffffffffffffffffffffff163373ffffffffffffffffffffffffffffffffffffffff16141515611477576040517f08c379a00000000000000000000000000000000000000000000000000000000081526004018080602001828103825260208152602001807f63616c6c6572206973206e6f742074686520636f6e7472616374206f776e657281525060200191505060405180910390fd5b600060159054906101000a900460ff1615600060156101000a81548160ff0219169083151502179055503373ffffffffffffffffffffffffffffffffffffffff167f6ee82a005a196114298ed3fd4055496a9411fca98d2088cb257767a7fee5435b600060159054906101000a900460ff16604051808215151515815260200191505060405180910390a2565b600860003373ffffffffffffffffffffffffffffffffffffffff1673ffffffffffffffffffffffffffffffffffffffff16815260200190815260200160002060009054906101000a900460ff16806115a55750600760003373ffffffffffffffffffffffffffffffffffffffff1673ffffffffffffffffffffffffffffffffffffffff16815260200190815260200160002060009054906101000a900460ff165b15156115fc576040517f08c379a000000000000000000000000000000000000000000000000000000000815260040180806020018281038252602d815260200180614c89602d913960400191505060405180910390fd5b6000809054906101000a900460ff1615151561161757600080fd5b60016000806101000a81548160ff0219169083151502179055506000600f60003373ffffffffffffffffffffffffffffffffffffffff1673ffffffffffffffffffffffffffffffffffffffff168152602001908152602001600020541115156116e8576040517f08c379a00000000000000000000000000000000000000000000000000000000081526004018080602001828103825260148152602001807f6e6f2066756e647320746f20776974686472617700000000000000000000000081525060200191505060405180910390fd5b6000600f60003373ffffffffffffffffffffffffffffffffffffffff1673ffffffffffffffffffffffffffffffffffffffff168152602001908152602001600020549050803073ffffffffffffffffffffffffffffffffffffffff16311015151561174f57fe5b6000600f60003373ffffffffffffffffffffffffffffffffffffffff1673ffffffffffffffffffffffffffffffffffffffff168152602001908152602001600020819055503373ffffffffffffffffffffffffffffffffffffffff166108fc829081150290604051600060405180830381858888f193505050501580156117da573d6000803e3d6000fd5b503373ffffffffffffffffffffffffffffffffffffffff167f63734cbaa2e40b5ba26fdbc5eee98dedeeaf268050a41768390bd0dbb20e3d27826040518082815260200191505060405180910390a25060008060006101000a81548160ff021916908315150217905550565b600f6020528060005260406000206000915090505481565b60068181548110151561186d57fe5b906000526020600020016000915090505481565b600d6020528060005260406000206000915090505481565b60076020528060005260406000206000915054906101000a900460ff1681565b600760003373ffffffffffffffffffffffffffffffffffffffff1673ffffffffffffffffffffffffffffffffffffffff16815260200190815260200160002060009054906101000a900460ff16151561197a576040517f08c379a000000000000000000000000000000000000000000000000000000000815260040180806020018281038252601c8152602001807f63616c6c6572206973206e6f742061204d61726b65742041646d696e0000000081525060200191505060405180910390fd5b600060159054906101000a900460ff161515156119e2576040517f08c379a0000000000000000000000000000000000000000000000000000000008152600401808060200182810382526036815260200180614cb66036913960400191505060405180910390fd5b60011515600860008373ffffffffffffffffffffffffffffffffffffffff1673ffffffffffffffffffffffffffffffffffffffff16815260200190815260200160002060009054906101000a900460ff1615151415611c3157600073ffffffffffffffffffffffffffffffffffffffff16600a6000600960008573ffffffffffffffffffffffffffffffffffffffff1673ffffffffffffffffffffffffffffffffffffffff16815260200190815260200160002054815260200190815260200160002060000160009054906101000a900473ffffffffffffffffffffffffffffffffffffffff1673ffffffffffffffffffffffffffffffffffffffff16141515611b5e576000600a6000600960008573ffffffffffffffffffffffffffffffffffffffff1673ffffffffffffffffffffffffffffffffffffffff16815260200190815260200160002054815260200190815260200160002060030160006101000a81548160ff02191690836002811115611b5857fe5b02179055505b6000600860008373ffffffffffffffffffffffffffffffffffffffff1673ffffffffffffffffffffffffffffffffffffffff16815260200190815260200160002060006101000a81548160ff0219169083151502179055508073ffffffffffffffffffffffffffffffffffffffff167f2985d81530dd99e8ec6b4afa40372e9bd2b904c4ce854bc531f9cb27fdabaad933604051808273ffffffffffffffffffffffffffffffffffffffff1673ffffffffffffffffffffffffffffffffffffffff16815260200191505060405180910390a25b50565b803373ffffffffffffffffffffffffffffffffffffffff16600a600083815260200190815260200160002060000160009054906101000a900473ffffffffffffffffffffffffffffffffffffffff1673ffffffffffffffffffffffffffffffffffffffff16141515611cf1576040517f08c379a000000000000000000000000000000000000000000000000000000000815260040180806020018281038252603c815260200180614dab603c913960400191505060405180910390fd5b600060159054906101000a900460ff16151515611d59576040517f08c379a0000000000000000000000000000000000000000000000000000000008152600401808060200182810382526036815260200180614cb66036913960400191505060405180910390fd5b600280811115611d6557fe5b600a600084815260200190815260200160002060030160009054906101000a900460ff166002811115611d9457fe5b141515611e38576002600a600084815260200190815260200160002060030160006101000a81548160ff02191690836002811115611dce57fe5b0217905550817fc72999ffb2f6f2b29e419831f1c92d71452b60f811b87f1fa77887faa5b16c3733604051808273ffffffffffffffffffffffffffffffffffffffff1673ffffffffffffffffffffffffffffffffffffffff16815260200191505060405180910390a25b5050565b60606004805480602002602001604051908101604052809291908181526020018280548015611ec057602002820191906000526020600020905b8160009054906101000a900473ffffffffffffffffffffffffffffffffffffffff1673ffffffffffffffffffffffffffffffffffffffff1681526020019060010190808311611e76575b5050505050905090565b60606006805480602002602001604051908101604052809291908181526020018280548015611f1857602002820191906000526020600020905b815481526020019060010190808311611f04575b5050505050905090565b6060806000806000611f32614b10565b600c600088815260200190815260200160002060a06040519081016040529081600082018054600181600116156101000203166002900480601f016020809104026020016040519081016040528092919081815260200182805460018160011615610100020316600290048015611fea5780601f10611fbf57610100808354040283529160200191611fea565b820191906000526020600020905b815481529060010190602001808311611fcd57829003601f168201915b50505050508152602001600182018054600181600116156101000203166002900480601f01602080910402602001604051908101604052809291908181526020018280546001816001161561010002031660029004801561208c5780601f106120615761010080835404028352916020019161208c565b820191906000526020600020905b81548152906001019060200180831161206f57829003601f168201915b5050505050815260200160028201548152602001600382015481526020016004820160009054906101000a900460ff1660028111156120c757fe5b60028111156120d257fe5b8152505090508060000151816020015182604001518360600151846080015160028111156120fc57fe5b849450839350955095509550955095505091939590929450565b6000600f60003373ffffffffffffffffffffffffffffffffffffffff1673ffffffffffffffffffffffffffffffffffffffff16815260200190815260200160002054905090565b600c602052806000526040600020600091509050806000018054600181600116156101000203166002900480601f0160208091040260200160405190810160405280929190818152602001828054600181600116156101000203166002900480156122095780601f106121de57610100808354040283529160200191612209565b820191906000526020600020905b8154815290600101906020018083116121ec57829003601f168201915b505050505090806001018054600181600116156101000203166002900480601f0160208091040260200160405190810160405280929190818152602001828054600181600116156101000203166002900480156122a75780601f1061227c576101008083540402835291602001916122a7565b820191906000526020600020905b81548152906001019060200180831161228a57829003601f168201915b5050505050908060020154908060030154908060040160009054906101000a900460ff16905085565b600060608060006122df614b4b565b600a6000878152602001908152602001600020608060405190810160405290816000820160009054906101000a900473ffffffffffffffffffffffffffffffffffffffff1673ffffffffffffffffffffffffffffffffffffffff1673ffffffffffffffffffffffffffffffffffffffff168152602001600182018054600181600116156101000203166002900480601f0160208091040260200160405190810160405280929190818152602001828054600181600116156101000203166002900480156123ed5780601f106123c2576101008083540402835291602001916123ed565b820191906000526020600020905b8154815290600101906020018083116123d057829003601f168201915b50505050508152602001600282018054600181600116156101000203166002900480601f01602080910402602001604051908101604052809291908181526020018280546001816001161561010002031660029004801561248f5780601f106124645761010080835404028352916020019161248f565b820191906000526020600020905b81548152906001019060200180831161247257829003601f168201915b505050505081526020016003820160009054906101000a900460ff1660028111156124b657fe5b60028111156124c157fe5b815250509050806000015181602001518260400151836060015160028111156124e657fe5b8393508292508191509450945094509450509193509193565b60048181548110151561250e57fe5b906000526020600020016000915054906101000a900473ffffffffffffffffffffffffffffffffffffffff1681565b600060159054906101000a900460ff1681565b600b6020528160005260406000208181548110151561256b57fe5b90600052602060002001600091509150505481565b803373ffffffffffffffffffffffffffffffffffffffff16600a600083815260200190815260200160002060000160009054906101000a900473ffffffffffffffffffffffffffffffffffffffff1673ffffffffffffffffffffffffffffffffffffffff1614151561263d576040517f08c379a000000000000000000000000000000000000000000000000000000000815260040180806020018281038252603c815260200180614dab603c913960400191505060405180910390fd5b600060159054906101000a900460ff161515156126a5576040517f08c379a0000000000000000000000000000000000000000000000000000000008152600401808060200182810382526036815260200180614cb66036913960400191505060405180910390fd5b600160028111156126b257fe5b600a600084815260200190815260200160002060030160009054906101000a900460ff1660028111156126e157fe5b1415612784576000600a600084815260200190815260200160002060030160006101000a81548160ff0219169083600281111561271a57fe5b0217905550817fdc394d8223b06dffc38aebceaca13ec9f117216fa61ded013bf9d4d367febb3233604051808273ffffffffffffffffffffffffffffffffffffffff1673ffffffffffffffffffffffffffffffffffffffff16815260200191505060405180910390a25b5050565b60015481565b600e6020528060005260406000206000915090508060000154908060010154908060020160009054906101000a900473ffffffffffffffffffffffffffffffffffffffff16908060030154908060040154905085565b60086020528060005260406000206000915054906101000a900460ff1681565b6000600860003373ffffffffffffffffffffffffffffffffffffffff1673ffffffffffffffffffffffffffffffffffffffff16815260200190815260200160002060009054906101000a900460ff16806128a75750600760003373ffffffffffffffffffffffffffffffffffffffff1673ffffffffffffffffffffffffffffffffffffffff16815260200190815260200160002060009054906101000a900460ff165b15156128fe576040517f08c379a000000000000000000000000000000000000000000000000000000000815260040180806020018281038252602d815260200180614c89602d913960400191505060405180910390fd5b600060159054906101000a900460ff16151515612966576040517f08c379a0000000000000000000000000000000000000000000000000000000008152600401808060200182810382526036815260200180614cb66036913960400191505060405180910390fd5b60008787905090506000811115156129e6576040517f08c379a00000000000000000000000000000000000000000000000000000000081526004018080602001828103825260168152602001807f626f617473206d75737420686176652061206e616d650000000000000000000081525060200191505060405180910390fd5b6000600960003373ffffffffffffffffffffffffffffffffffffffff1673ffffffffffffffffffffffffffffffffffffffff168152602001908152602001600020549050600081111515612a3657fe5b600160008154809291906001019190505550600b6000828152602001908152602001600020600154908060018154018082558091505090600182039060005260206000200160009091929091909150555080600d600060015481526020019081526020016000208190555060a0604051908101604052808a8a8080601f016020809104026020016040519081016040528093929190818152602001838380828437600081840152601f19601f82011690508083019250505050505050815260200188888080601f016020809104026020016040519081016040528093929190818152602001838380828437600081840152601f19601f82011690508083019250505050505050815260200186815260200185815260200160016002811115612b5a57fe5b815250600c600060015481526020019081526020016000206000820151816000019080519060200190612b8e929190614b95565b506020820151816001019080519060200190612bab929190614b95565b50604082015181600201556060820151816003015560808201518160040160006101000a81548160ff02191690836002811115612be457fe5b0217905550905050600154817f1ac3fc815645231f6c0b5fbe692796bd5d8a5495ba4eccf4901de038e49107ba878733604051808481526020018381526020018273ffffffffffffffffffffffffffffffffffffffff1673ffffffffffffffffffffffffffffffffffffffff168152602001935050505060405180910390a3600154925050509695505050505050565b600060019054906101000a900473ffffffffffffffffffffffffffffffffffffffff1681565b6060600b6000838152602001908152602001600020805480602002602001604051908101604052809291908181526020018280548015612cf957602002820191906000526020600020905b815481526020019060010190808311612ce5575b50505050509050919050565b600a6020528060005260406000206000915090508060000160009054906101000a900473ffffffffffffffffffffffffffffffffffffffff1690806001018054600181600116156101000203166002900480601f016020809104026020016040519081016040528092919081815260200182805460018160011615610100020316600290048015612dd75780601f10612dac57610100808354040283529160200191612dd7565b820191906000526020600020905b815481529060010190602001808311612dba57829003601f168201915b505050505090806002018054600181600116156101000203166002900480601f016020809104026020016040519081016040528092919081815260200182805460018160011615610100020316600290048015612e755780601f10612e4a57610100808354040283529160200191612e75565b820191906000526020600020905b815481529060010190602001808311612e5857829003601f168201915b5050505050908060030160009054906101000a900460ff16905084565b600581815481101515612ea157fe5b906000526020600020016000915054906101000a900473ffffffffffffffffffffffffffffffffffffffff1681565b60096020528060005260406000206000915090505481565b803373ffffffffffffffffffffffffffffffffffffffff16600a600083815260200190815260200160002060000160009054906101000a900473ffffffffffffffffffffffffffffffffffffffff1673ffffffffffffffffffffffffffffffffffffffff16141515612fa5576040517f08c379a000000000000000000000000000000000000000000000000000000000815260040180806020018281038252603c815260200180614dab603c913960400191505060405180910390fd5b600060159054906101000a900460ff1615151561300d576040517f08c379a0000000000000000000000000000000000000000000000000000000008152600401808060200182810382526036815260200180614cb66036913960400191505060405180910390fd5b60028081111561301957fe5b600a600084815260200190815260200160002060030160009054906101000a900460ff16600281111561304857fe5b1415156130ec576001600a600084815260200190815260200160002060030160006101000a81548160ff0219169083600281111561308257fe5b0217905550817f2f471fce97469ae3a9c5cca67a939d3018ae6e5111a03b0a98032c4015f2505633604051808273ffffffffffffffffffffffffffffffffffffffff1673ffffffffffffffffffffffffffffffffffffffff16815260200191505060405180910390a25b5050565b600060019054906101000a900473ffffffffffffffffffffffffffffffffffffffff1673ffffffffffffffffffffffffffffffffffffffff163373ffffffffffffffffffffffffffffffffffffffff161415156131b5576040517f08c379a00000000000000000000000000000000000000000000000000000000081526004018080602001828103825260208152602001807f63616c6c6572206973206e6f742074686520636f6e7472616374206f776e657281525060200191505060405180910390fd5b600060159054906101000a900460ff1615151561321d576040517f08c379a0000000000000000000000000000000000000000000000000000000008152600401808060200182810382526036815260200180614cb66036913960400191505060405180910390fd5b600060019054906101000a900473ffffffffffffffffffffffffffffffffffffffff1673ffffffffffffffffffffffffffffffffffffffff168173ffffffffffffffffffffffffffffffffffffffff16141515156132c6576040517f08c379a0000000000000000000000000000000000000000000000000000000008152600401808060200182810382526036815260200180614d536036913960400191505060405180910390fd5b60011515600760008373ffffffffffffffffffffffffffffffffffffffff1673ffffffffffffffffffffffffffffffffffffffff16815260200190815260200160002060009054906101000a900460ff16151514156133bb576000600760008373ffffffffffffffffffffffffffffffffffffffff1673ffffffffffffffffffffffffffffffffffffffff16815260200190815260200160002060006101000a81548160ff0219169083151502179055508073ffffffffffffffffffffffffffffffffffffffff167f786a6ef122b6ac212382cddd9060ca20435d047ace38959f67bde4b69c5b4c1560405160405180910390a25b50565b6060600580548060200260200160405190810160405280929190818152602001828054801561344257602002820191906000526020600020905b8160009054906101000a900473ffffffffffffffffffffffffffffffffffffffff1673ffffffffffffffffffffffffffffffffffffffff16815260200190600101908083116133f8575b5050505050905090565b60025481565b600760003373ffffffffffffffffffffffffffffffffffffffff1673ffffffffffffffffffffffffffffffffffffffff16815260200190815260200160002060009054906101000a900460ff161515613513576040517f08c379a000000000000000000000000000000000000000000000000000000000815260040180806020018281038252601c8152602001807f63616c6c6572206973206e6f742061204d61726b65742041646d696e0000000081525060200191505060405180910390fd5b600060159054906101000a900460ff1615151561357b576040517f08c379a0000000000000000000000000000000000000000000000000000000008152600401808060200182810382526036815260200180614cb66036913960400191505060405180910390fd5b60001515600860008373ffffffffffffffffffffffffffffffffffffffff1673ffffffffffffffffffffffffffffffffffffffff16815260200190815260200160002060009054906101000a900460ff161515141561370d576001600860008373ffffffffffffffffffffffffffffffffffffffff1673ffffffffffffffffffffffffffffffffffffffff16815260200190815260200160002060006101000a81548160ff02191690831515021790555060058190806001815401808255809150509060018203906000526020600020016000909192909190916101000a81548173ffffffffffffffffffffffffffffffffffffffff021916908373ffffffffffffffffffffffffffffffffffffffff160217905550508073ffffffffffffffffffffffffffffffffffffffff167f5526df583f5c85a8a84c2cb01c1cc849710e92dd9ce494f9235a53a66bc2b06433604051808273ffffffffffffffffffffffffffffffffffffffff1673ffffffffffffffffffffffffffffffffffffffff16815260200191505060405180910390a25b50565b600860003373ffffffffffffffffffffffffffffffffffffffff1673ffffffffffffffffffffffffffffffffffffffff16815260200190815260200160002060009054906101000a900460ff16806137b15750600760003373ffffffffffffffffffffffffffffffffffffffff1673ffffffffffffffffffffffffffffffffffffffff16815260200190815260200160002060009054906101000a900460ff165b1515613808576040517f08c379a000000000000000000000000000000000000000000000000000000000815260040180806020018281038252602d815260200180614c89602d913960400191505060405180910390fd5b600060159054906101000a900460ff16151515613870576040517f08c379a0000000000000000000000000000000000000000000000000000000008152600401808060200182810382526036815260200180614cb66036913960400191505060405180910390fd5b6000600960003373ffffffffffffffffffffffffffffffffffffffff1673ffffffffffffffffffffffffffffffffffffffff1681526020019081526020016000205414151561390a576040517f08c379a0000000000000000000000000000000000000000000000000000000008152600401808060200182810382526034815260200180614d1f6034913960400191505060405180910390fd5b600084849050905060008111151561398a576040517f08c379a00000000000000000000000000000000000000000000000000000000081526004018080602001828103825260178152602001807f6120636c7562206d75737420686176652061206e616d6500000000000000000081525060200191505060405180910390fd5b60026000815480929190600101919050555060066002549080600181540180825580915050906001820390600052602060002001600090919290919091505550600254600960003373ffffffffffffffffffffffffffffffffffffffff1673ffffffffffffffffffffffffffffffffffffffff168152602001908152602001600020819055506080604051908101604052803373ffffffffffffffffffffffffffffffffffffffff16815260200186868080601f016020809104026020016040519081016040528093929190818152602001838380828437600081840152601f19601f82011690508083019250505050505050815260200184848080601f016020809104026020016040519081016040528093929190818152602001838380828437600081840152601f19601f82011690508083019250505050505050815260200160016002811115613ad957fe5b815250600a6000600254815260200190815260200160002060008201518160000160006101000a81548173ffffffffffffffffffffffffffffffffffffffff021916908373ffffffffffffffffffffffffffffffffffffffff1602179055506020820151816001019080519060200190613b54929190614b95565b506040820151816002019080519060200190613b71929190614b95565b5060608201518160030160006101000a81548160ff02191690836002811115613b9657fe5b02179055509050506002547f06a5ab8c17cb7b03df4a876d4698f23201fabb76bd782c158ec302865609dc2c33604051808273ffffffffffffffffffffffffffffffffffffffff1673ffffffffffffffffffffffffffffffffffffffff16815260200191505060405180910390a25050505050565b6000816000600960003373ffffffffffffffffffffffffffffffffffffffff1673ffffffffffffffffffffffffffffffffffffffff1681526020019081526020016000205490506000600d60008481526020019081526020016000205414151515613cc1576040517f08c379a0000000000000000000000000000000000000000000000000000000008152600401808060200182810382526033815260200180614cec6033913960400191505060405180910390fd5b600d60008381526020019081526020016000205481141515613d2e576040517f08c379a0000000000000000000000000000000000000000000000000000000008152600401808060200182810382526022815260200180614c676022913960400191505060405180910390fd5b600060159054906101000a900460ff16151515613d96576040517f08c379a0000000000000000000000000000000000000000000000000000000008152600401808060200182810382526036815260200180614cb66036913960400191505060405180910390fd5b60016002811115613da357fe5b600c600086815260200190815260200160002060040160009054906101000a900460ff166002811115613dd257fe5b1415613e15576000600c600086815260200190815260200160002060040160006101000a81548160ff02191690836002811115613e0b57fe5b0217905550613e4e565b6001600c600086815260200190815260200160002060040160006101000a81548160ff02191690836002811115613e4857fe5b02179055505b6000600c600086815260200190815260200160002060040160009054906101000a900460ff166002811115613e7f57fe5b9050847f1ee08c9516bdf367d69035c14c661c7888fa68ccc5585b667f5323f1a19edfb3826040518082815260200191505060405180910390a260019350505050919050565b6000816000600960003373ffffffffffffffffffffffffffffffffffffffff1673ffffffffffffffffffffffffffffffffffffffff1681526020019081526020016000205490506000600d60008481526020019081526020016000205414151515613f7b576040517f08c379a0000000000000000000000000000000000000000000000000000000008152600401808060200182810382526033815260200180614cec6033913960400191505060405180910390fd5b600d60008381526020019081526020016000205481141515613fe8576040517f08c379a0000000000000000000000000000000000000000000000000000000008152600401808060200182810382526022815260200180614c676022913960400191505060405180910390fd5b600060159054906101000a900460ff16151515614050576040517f08c379a0000000000000000000000000000000000000000000000000000000008152600401808060200182810382526036815260200180614cb66036913960400191505060405180910390fd5b6000600c600086815260200190815260200160002060000180546001816001161561010002031660029004905090506000811180156140c8575060028081111561409657fe5b600c600087815260200190815260200160002060040160009054906101000a900460ff1660028111156140c557fe5b14155b1561416a576002600c600087815260200190815260200160002060040160006101000a81548160ff0219169083600281111561410057fe5b0217905550847ff31bdda461d6813d1cf607134b3d335c095eac19d4fbe7edcb69dac678a32f1b33604051808273ffffffffffffffffffffffffffffffffffffffff1673ffffffffffffffffffffffffffffffffffffffff16815260200191505060405180910390a25b60019350505050919050565b60008060159054906101000a900460ff161515156141df576040517f08c379a0000000000000000000000000000000000000000000000000000000008152600401808060200182810382526036815260200180614cb66036913960400191505060405180910390fd5b6000809054906101000a900460ff161515156141fa57600080fd5b60016000806101000a81548160ff0219169083151502179055506001600281111561422157fe5b600c600085815260200190815260200160002060040160009054906101000a900460ff16600281111561425057fe5b1415156142c5576040517f08c379a00000000000000000000000000000000000000000000000000000000081526004018080602001828103825260118152602001807f626f6174206e6f7420666f722073616c6500000000000000000000000000000081525060200191505060405180910390fd5b81600c60008581526020019081526020016000206003015410151515614353576040517f08c379a000000000000000000000000000000000000000000000000000000000815260040180806020018281038252601a8152602001807f6e6f7420656e6f75676820626f61747320617661696c61626c6500000000000081525060200191505060405180910390fd5b6000614375600c60008681526020019081526020016000206002015484614aa6565b90508034101515156143d2576040517f08c379a0000000000000000000000000000000000000000000000000000000008152600401808060200182810382526022815260200180614d896022913960400191505060405180910390fd5b6000600d6000868152602001908152602001600020549050600160028111156143f757fe5b600a600083815260200190815260200160002060030160009054906101000a900460ff16600281111561442657fe5b14151561449b576040517f08c379a000000000000000000000000000000000000000000000000000000000815260040180806020018281038252601a8152602001807f436c7562206973206e6f742063757272656e746c79206f70656e00000000000081525060200191505060405180910390fd5b60036000815480929190600101919050555060a0604051908101604052808281526020018681526020013373ffffffffffffffffffffffffffffffffffffffff16815260200185815260200183815250600e60006003548152602001908152602001600020600082015181600001556020820151816001015560408201518160020160006101000a81548173ffffffffffffffffffffffffffffffffffffffff021916908373ffffffffffffffffffffffffffffffffffffffff16021790555060608201518160030155608082015181600401559050506000600a600083815260200190815260200160002060000160009054906101000a900473ffffffffffffffffffffffffffffffffffffffff169050600073ffffffffffffffffffffffffffffffffffffffff168173ffffffffffffffffffffffffffffffffffffffff16141515156145e657fe5b61462f600f60008373ffffffffffffffffffffffffffffffffffffffff1673ffffffffffffffffffffffffffffffffffffffff1681526020019081526020016000205484614ad9565b600f60008373ffffffffffffffffffffffffffffffffffffffff1673ffffffffffffffffffffffffffffffffffffffff16815260200190815260200160002081905550614692600c60008881526020019081526020016000206003015486614af7565b600c60008881526020019081526020016000206003018190555060006146b83485614af7565b90506000811115614745573373ffffffffffffffffffffffffffffffffffffffff166108fc829081150290604051600060405180830381858888f19350505050158015614709573d6000803e3d6000fd5b506003547fc2b8f68866a5a74ed11be886558a395d6daa77cb4d0e245b131515503def49ce826040518082815260200191505060405180910390a25b6003543373ffffffffffffffffffffffffffffffffffffffff167fc70e0051ad893c81a2586dd6edaf451b8b289c2e8bb81fba73daadf88475b7f284868b8b8a3489604051808873ffffffffffffffffffffffffffffffffffffffff1673ffffffffffffffffffffffffffffffffffffffff16815260200187815260200186815260200185815260200184815260200183815260200182815260200197505050505050505060405180910390a360035494505050505060008060006101000a81548160ff02191690831515021790555092915050565b600060019054906101000a900473ffffffffffffffffffffffffffffffffffffffff1673ffffffffffffffffffffffffffffffffffffffff163373ffffffffffffffffffffffffffffffffffffffff161415156148e0576040517f08c379a00000000000000000000000000000000000000000000000000000000081526004018080602001828103825260208152602001807f63616c6c6572206973206e6f742074686520636f6e7472616374206f776e657281525060200191505060405180910390fd5b600060159054906101000a900460ff16151515614948576040517f08c379a0000000000000000000000000000000000000000000000000000000008152600401808060200182810382526036815260200180614cb66036913960400191505060405180910390fd5b60001515600760008373ffffffffffffffffffffffffffffffffffffffff1673ffffffffffffffffffffffffffffffffffffffff16815260200190815260200160002060009054906101000a900460ff1615151415614aa3576001600760008373ffffffffffffffffffffffffffffffffffffffff1673ffffffffffffffffffffffffffffffffffffffff16815260200190815260200160002060006101000a81548160ff02191690831515021790555060048190806001815401808255809150509060018203906000526020600020016000909192909190916101000a81548173ffffffffffffffffffffffffffffffffffffffff021916908373ffffffffffffffffffffffffffffffffffffffff160217905550508073ffffffffffffffffffffffffffffffffffffffff167f8577b73970afd905bc8b2c17574458270f0907121413ebdd279100e00b586d6d60405160405180910390a25b50565b60008082840290506000841480614ac75750828482811515614ac457fe5b04145b1515614acf57fe5b8091505092915050565b6000808284019050838110151515614aed57fe5b8091505092915050565b6000828211151515614b0557fe5b818303905092915050565b60a0604051908101604052806060815260200160608152602001600081526020016000815260200160006002811115614b4557fe5b81525090565b608060405190810160405280600073ffffffffffffffffffffffffffffffffffffffff168152602001606081526020016060815260200160006002811115614b8f57fe5b81525090565b828054600181600116156101000203166002900490600052602060002090601f016020900481019282601f10614bd657805160ff1916838001178555614c04565b82800160010185558215614c04579182015b82811115614c03578251825591602001919060010190614be8565b5b509050614c119190614c15565b5090565b614c3791905b80821115614c33576000816000905550600101614c1b565b5090565b9056fe6d6573736167652064617461206d6179206e6f742062652073656e7420746f207468652066616c6c6261636b796f7520617265206e6f7420746865206f776e6572206f66207468697320626f617463616c6c6572206973206e6f74206120436c7562204f776e6572206e6f722061204d61726b65742041646d696e66756e6374696f6e2063616e6e6f742072756e207768696c652074686520426f6174204d61726b65742069732073757370656e6465647468697320626f6174206973206e6f74206f776e656420627920616e7920636c7562202d20646f6573206e6f7420657869737463616c6c657220616c7265616479206f776e73206120636c756220616e642063616e206f6e6c79206f776e206f6e6520636c7562746865204d61726b65742041646d696e20726f6c652063616e6e6f742062652072656d6f7665642066726f6d20746865206f776e65726e6f7420656e6f7567682066756e64732073656e7420666f7220707572636861736563616c6c6572206973206e6f74206f776e6572206f66207468652073706563696669656420436c7562206e6f722061204d61726b65742041646d696ea165627a7a7230582098f3daeffb87f9ef0798bb3b7289870f1478e4e34f1c7ebd8b5ec0b3859771510029",
  "source": "pragma solidity 0.5.2;\n\nimport \"./SafeMath.sol\";\nimport \"./ReentrancyGuard.sol\";\n\n/// @title A market for rowing boat clubs on the river Thames to sell rowing boats\n/// @author Ryan Davies\ncontract ThamesBoats is ReentrancyGuard {\n\n  // owner, marketAdmin, clubOwner, buyer variables\n  // the contract owner\n  address public owner;\n  // whether the market is suspended\n  bool public suspended = false;\n  // records numeric sequence of boat, club, purchase IDs\n  uint256 public boatIdSeq;\n  uint256 public clubIdSeq;\n  uint256 private purchaseIdSeq;\n  // array of addresses assigned marketAdmin role\n  address[] public marketAdminRoleList;\n  // array of addreses assigned clubOwnerRole\n  address[] public clubOwnerRoleList;\n  // array of club IDs\n  uint256[] public clubList;\n\n  // mappings\n  // roleMarketAdmins\n  mapping(address => bool) public roleMarketAdmin;\n  // roleClubOwners\n  mapping(address => bool) public roleClubOwner;\n  // owner => clubId\n  mapping(address => uint256) public ownertoClub;\n  // clubId => Clubs\n  mapping(uint256 => Club) public clubs;\n  // clubId => BoatIds\n  mapping(uint256 => uint256[]) public clubBoats; \n  // boatId => boat\n  mapping(uint256 => Boat) public boats;\n  // boatId => clubId\n  mapping(uint256 => uint256) public boatIdtoClubId;\n  // purchaseId => Purchase\n  mapping(uint256 => Purchase) public purchases;\n  // balances of the ClubOwners\n  mapping(address => uint256) public balances;\n\n  // struct of boats details, prices, stock\n  struct Boat {\n      string name;\n      string description;\n      uint256 price; \n      uint256 quantity; \n      BoatStatus boatStatus;\n  }\n\n  // struct of clubs and their statuses\n  struct Club {\n      address payable owner; \n      string name;\n      string location;\n      ClubStatus clubStatus;\n  }\n\n  // struct of buyer purchases\n  struct Purchase {\n      uint256 clubId; \n      uint256 boatId;\n      address buyer;\n      uint256 quantity;\n      uint256 totalPaid;\n  }\n\n  enum ClubStatus {\n      Closed,     // 0\n      Open,       // 1\n      Removed     // 2\n  }\n  \n  enum BoatStatus {\n      NotForSale, // 0\n      ForSale,    // 1\n      Removed     // 2\n  }\n\n  // events\n  event LogToggleThamesBoatsSuspended(address indexed actionedBy, bool suspended);\n  event LogAddMarketAdmin(address indexed newAdmin);\n  event LogRemoveMarketAdmin(address indexed removedAdmin);\n  event LogRemoveClubOwner(address indexed removedClubOwner, address actionedBy);\n  event LogAddClubOwner(address indexed newClubOwner, address actionedBy);\n  event LogClubRemoved(uint256 indexed clubId, address actionedBy);\n  event LogClubClosed(uint256 indexed clubId, address actionedBy);\n  event LogClubAdded(uint256 indexed clubId, address actionedBy);\n  event LogClubOpen(uint256 indexed clubId, address actionedBy);\n  event LogBoatAdded(\n      uint256 indexed clubId, \n      uint256 indexed boatId, \n      uint256 price, \n      uint256 quantity, \n      address actionedBy\n  );\n  event LogBoatRemoved(uint256 indexed boatId, address actionedBy);\n  event LogBoatStatusToggled(uint256 indexed boatId, uint256 boatStatus);\n  event LogPaymentReceived(address indexed sender, uint256 value);\n  event LogPaymentRefund(uint256 indexed purchaseId, uint256 refund);\n  event LogWithdrawl(address indexed withdrawer, uint256 value);\n  event LogPurchase(\n      address indexed purchasedBy, \n      uint256 indexed purchaseId, \n      address clubOwner, \n      uint256 clubId,\n      uint256 boatId, \n      uint256 quantity, \n      uint256 costOfSale,\n      uint256 fundsSent,\n      uint256 refund\n  );\n\n  /// modifier, require that the market is not suspended\n  modifier ifMarketNotSuspended {\n      require(!suspended, \"function cannot run while the Boat Market is suspended\");\n      _; \n  }\n \n  /// modifier, require that the market is suspended\n  modifier ifMarketSuspended { \n      require(suspended, \"function cannot run while the Boat Market is running\");\n      _; \n  }\n\n  /// modifier, checks that the caller is the owner\n  modifier isOwner() { \n     require(msg.sender == owner, \"caller is not the contract owner\"); \n     _; \n  }\n \n  /// modifier, checks that caller ia a MarketAdmin\n  modifier hasMarketAdminRole() {\n     require(roleMarketAdmin[msg.sender], \"caller is not a Market Admin\");\n     _;\n  }\n\n  /// modifier, checks that caller is club owner or is a market admin\n  modifier hasClubOwnerRole() {\n      require((roleClubOwner[msg.sender] || roleMarketAdmin[msg.sender]), \n              \"caller is not a Club Owner nor a Market Admin\");\n      _;\n  }\n\n  /// modifier, checks that caller owns this club\n  modifier ownsThisClub(uint256 clubId) {\n      require((clubs[clubId].owner == msg.sender), \n              \"caller is not owner of the specified Club nor a Market Admin\");\n      _;\n  }\n\n  /// modifier, checks that caller owns the given boat\n  modifier ownsThisBoat(uint256 boatId) {\n      uint256 ownsClubId = ownertoClub[msg.sender];\n      require(boatIdtoClubId[boatId] != 0, \"this boat is not owned by any club - does not exist\");\n      require(ownsClubId == boatIdtoClubId[boatId], \"you are not the owner of this boat\");\n      _;\n  }\n\n\n  /// @notice constructor funtion\n  /// @dev assign the owner the market admin role by default\n  constructor() public {\n      owner = msg.sender;\n      roleMarketAdmin[msg.sender] = true;\n      marketAdminRoleList.push(msg.sender);\n  }\n\n  /// @notice Fallback funtion\n  /// @dev We require that no data can be sent to fallback to prevent accidental usage\n  /// @dev and loss of funds sent\n  function() external payable  { \n      require(msg.data.length == 0, \"message data may not be sent to the fallback\");\n  }\n\n  /// @notice Emergency contract circuit breaker\n  //  @dev May only be called by the owner\n  function toggleThamesBoatsActive()\n      external\n      isOwner\n  {\n      suspended = !suspended;\n      emit LogToggleThamesBoatsSuspended(msg.sender, suspended);\n  }\n\n  /// @notice Returns the details for a given club ID\n  /// @param clubId of the club details requested\n  /// @return address of the club owner\n  /// @return name of the club\n  /// @return location of the club\n  /// @return status of the rowing club, enum ClubStatus\n  function getClub(uint256 clubId) \n      external\n      view \n      returns(\n          address,\n          string memory,\n          string memory,\n          uint256 \n      )\n  {\n      Club memory club = clubs[clubId];\n\n      return(\n          club.owner,\n          club.name,\n          club.location,\n          uint256(club.clubStatus)\n      );\n  }\n\n  /// @notice Returns the details of a given boat ID\n  /// @param boatId for required boat\n  /// @return name of the boat\n  /// @return decription of the boat\n  /// @return price of the boat in Wei\n  /// @return quantity of the boat in stock\n  /// @return boatStatus of the boat, enum BoatStatus\n  function getBoat(uint256 boatId) \n      external \n      view\n      returns(\n          string memory,\n          string memory,\n          uint256,\n          uint256,\n          uint256\n      )\n  {\n      Boat memory boat = boats[boatId];\n\n      return(\n          boat.name,\n          boat.description,\n          boat.price,\n          boat.quantity,\n          uint256(boat.boatStatus)\n      );\n  }\n\n  /// @notice Gets the complete list of club IDs\n  /// @return an array of boat club IDs\n  function getClubIds() external view returns(uint256[] memory) {\n      return clubList;        \n  }\n\n  /// @notice Gets the array of Market Admins addresses every assigned\n  /// @return the array of Market Admin addresses\n  function getMarketAdmins() external view returns(address[] memory) {\n      return marketAdminRoleList;\n  }\n\n  /// @notice Gets the array of Club Owner addresses ever assigned\n  /// @return the arrary of Club Owner addresses\n  function getClubOwners() external view returns(address[] memory) {\n      return clubOwnerRoleList;\n  }\n \n  /// @notice Gets the balance of the requesting address from the balances mapping\n  /// @return the balance in Wei as an integer\n  function getMyBalance() external view returns(uint256) {\n      return balances[msg.sender];\n  }\n\n  /// @notice Gets the boat IDs owned by a given club ID\n  /// @param clubId ID of club which owns the returned boat ID\n  /// @return arrary of boat IDs\n  function getBoatsIdbyClubId(uint256 clubId) external view returns(uint256[] memory) {\n      return clubBoats[clubId];      \n  }\n\n  /// @notice Add boat details, mapped to the callers club ID\n  /// @dev The caller must have the club owner role and have a club\n  /// @param name name or title of the boat\n  /// @param description details about the boat for sale\n  /// @param price price in Wei\n  /// @param quantity quantity of the boat\n  /// @return boatIdSeq of the new boat added\n  function addBoat(\n      string calldata name, \n      string calldata description, \n      uint256 price, \n      uint256 quantity\n  )\n      external\n      hasClubOwnerRole\n      ifMarketNotSuspended\n      returns(uint256)\n  {\n      uint256 nameLength = bytes(name).length;\n      require(nameLength > 0, \"boats must have a name\");\n      uint256 myClubId = ownertoClub[msg.sender];\n      // Assert that a clubOwner must have a clubId assigned in mapping ownertoClub.\n      // clubId is incremented before first use, and therefore will always be set \n      // and always greater than 1\n      assert(myClubId > 0);\n\n      boatIdSeq++;\n      clubBoats[myClubId].push(boatIdSeq);   \n      boatIdtoClubId[boatIdSeq] = myClubId;\n      boats[boatIdSeq] = Boat({\n          name: name,\n          description: description,\n          price: price,\n          quantity: quantity,\n          boatStatus: BoatStatus.ForSale\n      }); \n      emit LogBoatAdded(myClubId, boatIdSeq, price, quantity, msg.sender);\n      return boatIdSeq;\n  }   \n \n  /// @notice Remove a boat by given boat ID\n  /// @dev The caller must be the owner of the given boat ID\n  /// @param boatId ID of the boat to be marked as Removed\n  /// @return bool\n  function removeBoat(uint256 boatId)\n      external\n      ownsThisBoat(boatId)\n      ifMarketNotSuspended\n      returns(bool)\n  { \n      // Check that mapping exist by ensuring nane length is non-zero\n      uint256 nameLength = bytes(boats[boatId].name).length;\n      if(nameLength > 0 &&\n         boats[boatId].boatStatus != BoatStatus.Removed)\n      {\n          boats[boatId].boatStatus = BoatStatus.Removed;  \n          emit LogBoatRemoved(boatId, msg.sender);\n      }\n      return true;\n  }\n\n  /// @notice Toggles the state of a given boat ID between ForSale and NotForSale\n  /// @dev The caller must be the owner of the given boat ID\n  /// @param boatId of boat to change status\n  /// @return bool\n  function toggleBoatStatus(uint256 boatId)\n      external\n      ownsThisBoat(boatId)\n      ifMarketNotSuspended\n      returns(bool)\n  {\n      if (boats[boatId].boatStatus == BoatStatus.ForSale) {  \n          (boats[boatId].boatStatus = BoatStatus.NotForSale);\n      } else {\n          (boats[boatId].boatStatus = BoatStatus.ForSale);\n      } \n      uint256 boatStatus = uint256(boats[boatId].boatStatus);\n      emit LogBoatStatusToggled(boatId, boatStatus);\n      return true;\n  }\n\n  /// @notice Purchase a given boat specifing the boat ID and quantity\n  /// @dev The function uses SafeMath for calculations to prevent against underflow\n  /// @dev and overflow errors or attacks. \n  /// @dev The function uses the modifier nonReentrant provided by OpenZeppelin, to \n  /// @dev prevent against reentrancy attacks.\n  /// @param boatId ID of boat to purchase\n  /// @param quantity number of the boat to purcahse\n  /// @return purchaseIdSeq, the ID of the purchase recorded in the purcahses mapping\n  function purchaseBoat(uint256 boatId, uint256 quantity)\n      external\n      payable \n      ifMarketNotSuspended\n      nonReentrant\n      returns(uint256)\n  {\n      // ensure purchaseer and seller conditions are met\n      require(boats[boatId].boatStatus == BoatStatus.ForSale, \"boat not for sale\");\n      require(boats[boatId].quantity >= quantity, \"not enough boats available\");\n      uint256 costOfSale = SafeMath.mul(boats[boatId].price, quantity);\n      require(msg.value >= costOfSale, \"not enough funds sent for purchase\");\n      uint256 clubIdOfBoat = boatIdtoClubId[boatId];\n      require(clubs[clubIdOfBoat].clubStatus == ClubStatus.Open, \"Club is not currently open\");\n \n      // record the sale in sales ledger\n      purchaseIdSeq++;\n      purchases[purchaseIdSeq] = Purchase({\n          clubId: clubIdOfBoat,\n          boatId: boatId,\n          buyer: msg.sender,\n          quantity: quantity,         \n          totalPaid: costOfSale\n      });\n\n      // pay the club owner the cost of sale \n      address payable clubOwnerAddr = clubs[clubIdOfBoat].owner;\n      // assert the stored club owner address is non-zero, should never occur\n      assert(clubOwnerAddr != address(0));\n      balances[clubOwnerAddr] = SafeMath.add(balances[clubOwnerAddr], costOfSale);\n \n      // reduce club's stock on hand\n      boats[boatId].quantity = SafeMath.sub(boats[boatId].quantity, quantity);\n\n      // we refund any excess to the caller\n      uint256 amountToRefund = SafeMath.sub(msg.value, costOfSale);\n      if(amountToRefund > 0) {\n          msg.sender.transfer(amountToRefund);\n          emit LogPaymentRefund(purchaseIdSeq, amountToRefund);\n      }\n\n      // log the purchase\n      emit LogPurchase(\n          msg.sender, \n          purchaseIdSeq,  \n          clubOwnerAddr, \n          clubIdOfBoat, \n          boatId, \n          quantity, \n          costOfSale,\n          msg.value,\n          amountToRefund\n      );\n\n      return purchaseIdSeq;\n  }\n\n  /// @notice Withdraw funds recorded in balances for the callers account\n  /// @dev The function uses the nonReentrant modifier to prevent against\n  /// @dev reentrancy attacks. nonReentrant is provided ReentrancyGuard \n  /// @dev developed by OpenZeppelin.\n  /// @dev The function is also written using the withdrawl design pattern.\n  function withdrawFunds()\n      external\n      payable\n      hasClubOwnerRole\n      nonReentrant\n  {\n      require(balances[msg.sender] > 0, \"no funds to withdraw\");\n      uint amounttoWithdraw = balances[msg.sender];\n      // assert the funds to withdraw exist, should always be the case\n      assert(address(this).balance >= amounttoWithdraw);\n\n      // set balanaces[msg.sender] to zero, before transfering funds, the normal \n      // design to avoid reentranncy. The nonReentrant modifer is also used.\n      balances[msg.sender] = 0;\n      msg.sender.transfer(amounttoWithdraw);\n      emit LogWithdrawl(msg.sender, amounttoWithdraw);\n  }\n\n  /// @notice Add a rowing boat club\n  /// @dev The called must have been granted the club owner role\n  /// @param name name of the rowing boat club\n  /// @param location location of the club\n  function addClub(string calldata name, string calldata location) \n      external \n      hasClubOwnerRole \n      ifMarketNotSuspended \n  {\n      require(ownertoClub[msg.sender] == 0, \"caller already owns a club and can only own one club\");\n      uint256 nameLength = bytes(name).length;\n      require(nameLength > 0, \"a club must have a name\");\n\n      clubIdSeq++;  \n      clubList.push(clubIdSeq);\n      ownertoClub[msg.sender] = clubIdSeq; \n      clubs[clubIdSeq] = Club({\n          owner: msg.sender,\n          name: name,\n          location: location,\n          clubStatus: ClubStatus.Open\n      }); \n      emit LogClubAdded(clubIdSeq, msg.sender);\n  }\n\n  /// @notice Mark the given club as Removed, and therefore \n  /// @notice permanently closed\n  /// @dev May only be called by the owner of the given club\n  /// @param clubId ID of the club to be removed\n  function removeClub(uint256 clubId) \n      external \n      ownsThisClub(clubId)\n      ifMarketNotSuspended \n  {\n      if(clubs[clubId].clubStatus != ClubStatus.Removed) {\n          clubs[clubId].clubStatus = ClubStatus.Removed;\n          emit LogClubRemoved(clubId, msg.sender);\n      }\n  }\n\n  /// @notice Mark the given club as Closed\n  /// @dev May only be called by the owner of the given club\n  /// @param clubId ID of the club to be closed\n  function closeClub(uint256 clubId) \n      external \n      ownsThisClub(clubId)\n      ifMarketNotSuspended \n  {   \n      // close club if open (i.e. not closed and not removed) \n      if(clubs[clubId].clubStatus == ClubStatus.Open) {\n          clubs[clubId].clubStatus = ClubStatus.Closed;\n          emit LogClubClosed(clubId, msg.sender);\n      }   \n  }\n\n  /// @notice Mark the given club as Open\n  /// @dev May only be called by the owner of the given club\n  /// @param clubId ID of the club to be opened\n  function openClub(uint256 clubId) \n      external\n      ownsThisClub(clubId)\n      ifMarketNotSuspended\n  {\n      if(clubs[clubId].clubStatus != ClubStatus.Removed) {\n          clubs[clubId].clubStatus = ClubStatus.Open;\n          emit LogClubOpen(clubId, msg.sender);\n      }\n  }\n\n  /// @notice Add the market admin role to the given address \n  /// @param _address the address to be granted the market admin role\n  function addMarketAdmin(address _address) \n      external \n      isOwner \n      ifMarketNotSuspended\n  {\n      if (roleMarketAdmin[_address] == false) {\n          roleMarketAdmin[_address] = true;\n          marketAdminRoleList.push(_address);\n          emit LogAddMarketAdmin(_address);\n      }\n  }\n\n  /// @notice Remove the market admin role from the given address\n  /// @param _address the address to be removed\n  function removeMarketAdmin(address _address) \n      external \n      isOwner \n      ifMarketNotSuspended\n  {\n      require(_address != owner, \"the Market Admin role cannot be removed from the owner\");\n      if (roleMarketAdmin[_address] == true) {\n          roleMarketAdmin[_address] = false;\n          emit LogRemoveMarketAdmin(_address);\n      }\n  }\n\n  /// @notice Add the club owner role to a given address\n  /// @param _address the address to receive the club owner role\n  function addClubOwner(address _address) \n      external  \n      hasMarketAdminRole \n      ifMarketNotSuspended\n  {\n      if (roleClubOwner[_address] == false) {\n          roleClubOwner[_address] = true;\n          clubOwnerRoleList.push(_address);\n          emit LogAddClubOwner(_address, msg.sender);\n      }\n  }\n\n  /// @notice Remove the club owner role from a given address\n  /// @param _address the address of the club owner\n  function removeClubOwner(address _address) \n      external \n      hasMarketAdminRole \n      ifMarketNotSuspended\n  {\n      if (roleClubOwner[_address] == true) {\n          // close the boat club if one has been opened\n          if(clubs[ownertoClub[_address]].owner != address(0)) {\n              clubs[ownertoClub[_address]].clubStatus = ClubStatus.Closed;\n          }\n          roleClubOwner[_address] = false;\n          emit LogRemoveClubOwner(_address, msg.sender);\n      }\n  }\n\n}\n\n",
  "sourcePath": "/home/oracle/ETH/final-project-ThamesBoats/thames_boats/contracts/ThamesBoats.sol",
  "compiler": {
    "name": "solc",
    "version": "0.5.2+commit.1df8f40c.Emscripten.clang"
  },
  "schemaVersion": "3.0.0",
  "updatedAt": "2019-01-25T15:45:02.161Z",
  "devdoc": {
    "author": "Ryan Davies",
    "methods": {
      "addBoat(string,string,uint256,uint256)": {
        "details": "The caller must have the club owner role and have a club",
        "params": {
          "description": "details about the boat for sale",
          "name": "name or title of the boat",
          "price": "price in Wei",
          "quantity": "quantity of the boat"
        },
        "return": "boatIdSeq of the new boat added"
      },
      "addClub(string,string)": {
        "details": "The called must have been granted the club owner role",
        "params": {
          "location": "location of the club",
          "name": "name of the rowing boat club"
        }
      },
      "addClubOwner(address)": {
        "params": {
          "_address": "the address to receive the club owner role"
        }
      },
      "addMarketAdmin(address)": {
        "params": {
          "_address": "the address to be granted the market admin role"
        }
      },
      "closeClub(uint256)": {
        "details": "May only be called by the owner of the given club",
        "params": {
          "clubId": "ID of the club to be closed"
        }
      },
      "constructor": {
        "details": "assign the owner the market admin role by default"
      },
      "getBoat(uint256)": {
        "params": {
          "boatId": "for required boat"
        },
        "return": "name of the boatdecription of the boatprice of the boat in Weiquantity of the boat in stockboatStatus of the boat, enum BoatStatus"
      },
      "getBoatsIdbyClubId(uint256)": {
        "params": {
          "clubId": "ID of club which owns the returned boat ID"
        },
        "return": "arrary of boat IDs"
      },
      "getClub(uint256)": {
        "params": {
          "clubId": "of the club details requested"
        },
        "return": "address of the club ownername of the clublocation of the clubstatus of the rowing club, enum ClubStatus"
      },
      "getClubIds()": {
        "return": "an array of boat club IDs"
      },
      "getClubOwners()": {
        "return": "the arrary of Club Owner addresses"
      },
      "getMarketAdmins()": {
        "return": "the array of Market Admin addresses"
      },
      "getMyBalance()": {
        "return": "the balance in Wei as an integer"
      },
      "openClub(uint256)": {
        "details": "May only be called by the owner of the given club",
        "params": {
          "clubId": "ID of the club to be opened"
        }
      },
      "purchaseBoat(uint256,uint256)": {
        "details": "The function uses SafeMath for calculations to prevent against underflowand overflow errors or attacks. The function uses the modifier nonReentrant provided by OpenZeppelin, to prevent against reentrancy attacks.",
        "params": {
          "boatId": "ID of boat to purchase",
          "quantity": "number of the boat to purcahse"
        },
        "return": "purchaseIdSeq, the ID of the purchase recorded in the purcahses mapping"
      },
      "removeBoat(uint256)": {
        "details": "The caller must be the owner of the given boat ID",
        "params": {
          "boatId": "ID of the boat to be marked as Removed"
        },
        "return": "bool"
      },
      "removeClub(uint256)": {
        "details": "May only be called by the owner of the given club",
        "params": {
          "clubId": "ID of the club to be removed"
        }
      },
      "removeClubOwner(address)": {
        "params": {
          "_address": "the address of the club owner"
        }
      },
      "removeMarketAdmin(address)": {
        "params": {
          "_address": "the address to be removed"
        }
      },
      "toggleBoatStatus(uint256)": {
        "details": "The caller must be the owner of the given boat ID",
        "params": {
          "boatId": "of boat to change status"
        },
        "return": "bool"
      },
      "withdrawFunds()": {
        "details": "The function uses the nonReentrant modifier to prevent againstreentrancy attacks. nonReentrant is provided ReentrancyGuard developed by OpenZeppelin.The function is also written using the withdrawl design pattern."
      }
    },
    "title": "A market for rowing boat clubs on the river Thames to sell rowing boats"
  },
  "userdoc": {
    "methods": {
      "addBoat(string,string,uint256,uint256)": {
        "notice": "Add boat details, mapped to the callers club ID"
      },
      "addClub(string,string)": {
        "notice": "Add a rowing boat club"
      },
      "addClubOwner(address)": {
        "notice": "Add the club owner role to a given address"
      },
      "addMarketAdmin(address)": {
        "notice": "Add the market admin role to the given address "
      },
      "closeClub(uint256)": {
        "notice": "Mark the given club as Closed"
      },
      "constructor": "constructor funtion",
      "getBoat(uint256)": {
        "notice": "Returns the details of a given boat ID"
      },
      "getBoatsIdbyClubId(uint256)": {
        "notice": "Gets the boat IDs owned by a given club ID"
      },
      "getClub(uint256)": {
        "notice": "Returns the details for a given club ID"
      },
      "getClubIds()": {
        "notice": "Gets the complete list of club IDs"
      },
      "getClubOwners()": {
        "notice": "Gets the array of Club Owner addresses ever assigned"
      },
      "getMarketAdmins()": {
        "notice": "Gets the array of Market Admins addresses every assigned"
      },
      "getMyBalance()": {
        "notice": "Gets the balance of the requesting address from the balances mapping"
      },
      "openClub(uint256)": {
        "notice": "Mark the given club as Open"
      },
      "purchaseBoat(uint256,uint256)": {
        "notice": "Purchase a given boat specifing the boat ID and quantity"
      },
      "removeBoat(uint256)": {
        "notice": "Remove a boat by given boat ID"
      },
      "removeClub(uint256)": {
        "notice": "Mark the given club as Removed, and therefore permanently closed"
      },
      "removeClubOwner(address)": {
        "notice": "Remove the club owner role from a given address"
      },
      "removeMarketAdmin(address)": {
        "notice": "Remove the market admin role from the given address"
      },
      "toggleBoatStatus(uint256)": {
        "notice": "Toggles the state of a given boat ID between ForSale and NotForSale"
      },
      "toggleThamesBoatsActive()": {
        "notice": "Emergency contract circuit breaker"
      },
      "withdrawFunds()": {
        "notice": "Withdraw funds recorded in balances for the callers account"
      }
    }
  }
}